:020000040800F2
:10000000001800205D290008E1280008E728000802
:1000100000000000000000000000000000000000E0
:10002000000000000000000000000000ED280008B3
:100030000000000000000000F72800080129000867
:10004000DD290008DD290008DD290008DD29000878
:10005000DD290008DD290008DD290008DD29000868
:10006000DD290008DD290008DD290008DD29000858
:10007000DD290008DD290008DD290008DD29000848
:10008000DD2900080000000000000000DD29000854
:1000900000000000DD290008DD290008DD29000836
:1000A00000000000DD290008DD290008DD29000826
:1000B000DD29000800000000DD290008DD29000816
:1000C00010B5064C2378002B07D1054B002B02D02E
:1000D000044800E000BF0123237010BD600500202C
:1000E0000000000084450008044B10B5002B03D02D
:1000F0000349044800E000BF10BDC04600000000F6
:100100006405002084450008002243088B4274D314
:1001100003098B425FD3030A8B4244D3030B8B4208
:1001200028D3030C8B420DD3FF22090212BA030C11
:100130008B4202D31212090265D0030B8B4219D3F2
:1001400000E0090AC30B8B4201D3CB03C01A524112
:10015000830B8B4201D38B03C01A5241430B8B425A
:1001600001D34B03C01A5241030B8B4201D30B0343
:10017000C01A5241C30A8B4201D3CB02C01A52416A
:10018000830A8B4201D38B02C01A5241430A8B422D
:1001900001D34B02C01A5241030A8B4201D30B0216
:1001A000C01A5241CDD2C3098B4201D3CB01C01A30
:1001B000524183098B4201D38B01C01A524143093A
:1001C0008B4201D34B01C01A524103098B4201D328
:1001D0000B01C01A5241C3088B4201D3CB00C01A95
:1001E000524183088B4201D38B00C01A524143080D
:1001F0008B4201D34B00C01A5241411A00D2014632
:10020000524110467047FFE701B5002000F006F8A4
:1002100002BDC0460029F7D076E770477047C04658
:1002200080B582B000AF0200FB1D1A70FB1D1B7869
:100230005BB2002B08DAFB1D1B785B005BB21B2254
:1002400053405BB2DBB203E0FB1D1B78DB18DBB273
:100250001800BD4602B080BD80B584B000AF7860A4
:100260000F217B187A68527B1A707B680D337A688D
:10027000527A1A707B6809337A6852791A707B68EF
:1002800005337A6852781A707B6801337A181278CD
:100290001A707B187A68927B1A707B680E337A68C2
:1002A00092791A707B6806337A1812781A707B1864
:1002B0007A68927A1A707B680A337A6892781A7030
:1002C0007B6802337A1812781A707B187A68D278B1
:1002D0001A707B6803337A68D2791A707B680733A7
:1002E0007A68D27A1A707B680B337A68D27B1A707C
:1002F0007B680F337A1812781A70C046BD4604B076
:1003000080BD0000B0B586B000AF786039601323BF
:10031000FB1800221A700DE07A68531C7B603B6862
:10032000591C396012781A701322BB18BA18127847
:1003300001321A701322BB181B780F2BECD93B68C3
:10034000043B7B61BB1800221A7010E17B695A1CC8
:100350007A611B781A008B4B9A5C08203B18DA7084
:100360007B695A1C7A611B781A00864B9A5C3B1891
:100370001A707B695A1C7A611B781A00814B9A5C4F
:100380003B185A707B695A1C7A611B781A007D4BA6
:100390009A5C3B189A703B181A7813257B191B78C6
:1003A0007949CB5C5340DAB204003B191A703B68C0
:1003B000103BFB603B191978FB685A1CFA601A78ED
:1003C0003B68581C38604A40D2B21A703B195978C1
:1003D000FB685A1CFA601A783B68581C38604A401F
:1003E000D2B21A703B199978FB685A1CFA601A78D5
:1003F0003B68581C38604A40D2B21A703B19D97811
:10040000FB685A1CFA601A783B68581C38604A40EE
:10041000D2B21A707B695A1C7A611978FB685A1C2F
:10042000FA601A783B68581C38604A40D2B21A7099
:100430007B695A1C7A611978FB685A1CFA601A7831
:100440003B68581C38604A40D2B21A707B695A1C0B
:100450007A611978FB685A1CFA601A783B68581C54
:1004600038604A40D2B21A707B695A1C7A61197896
:10047000FB685A1CFA601A783B68581C38604A407E
:10048000D2B21A707B695A1C7A611978FB685A1CBF
:10049000FA601A783B68581C38604A40D2B21A7029
:1004A0007B695A1C7A611978FB685A1CFA601A78C1
:1004B0003B68581C38604A40D2B21A707B695A1C9B
:1004C0007A611978FB685A1CFA601A783B68581CE4
:1004D00038604A40D2B21A707B695A1C7A61197826
:1004E000FB685A1CFA601A783B68581C38604A400E
:1004F000D2B21A707B695A1C7A611978FB685A1C4F
:10050000FA601A783B68581C38604A40D2B21A70B8
:100510007B695A1C7A611978FB685A1CFA601A7850
:100520003B68581C38604A40D2B21A707B695A1C2A
:100530007A611978FB685A1CFA601A783B68581C73
:1005400038604A40D2B21A707B695A1C7A611978B5
:10055000FB685A1CFA601A783B68581C38604A409D
:10056000D2B21A707B197A19127801321A701323D9
:10057000FB181B78092B00D8E8E6C046C046BD46EC
:1005800006B0B0BD0C00002000000020F0B58BB01C
:1005900000AFF860B9607A60FB68A033FB60272386
:1005A000FB1800221A7016E027243B191B78BA6842
:1005B000D31819783B191B78FA68D3181A783B19A5
:1005C0001B787868C3184A40D2B21A703B193A199E
:1005D000127801321A7027243B191B780F2BE3D9AC
:1005E000FB68103BFB607B681800FFF735FE3B198A
:1005F00000221A7012E027203B181B787A68D31863
:100600001B7819003B181B787A68D318EB4A525CA8
:100610001A703B183A18127801321A702723FB1807
:100620001B780F2BE7D92623FB1801221A7099E1BA
:100630002723FB1800221A7017E027243B191B7888
:100640007A68D31819783B191B78FA68D3181A7886
:100650003B191B7810203818C3184A40D2B21A70C0
:100660003B193A19127801321A702722BB181B78ED
:100670000F2BE2D9BB1800221A7044E127257B1901
:100680001B781026BA19D25C7B191B780133B91973
:10069000CB5C5340DAB27B191B780233B919CB5CBF
:1006A0005340D9B27B191B780333BA19D25C252089
:1006B0003B184A401A707B191B78BA19D25C3B1858
:1006C0001B785340DCB27B191B78BA19D25C7B19BA
:1006D0001B780133B919CB5C5340DBB21800FFF72C
:1006E0009FFD030019007B191B787A68D31822003C
:1006F0004A40D2B21A707B191B780133BA19D25C06
:1007000025203B181B785340DCB27B191B78013342
:10071000BA19D25C7B191B780233B919CB5C5340F0
:10072000DBB21800FFF77CFD030019007B191B7872
:1007300001337A68D31822004A40D2B21A707B196A
:100740001B780233BA19D25C25203B181B78534022
:10075000DCB27B191B780233BA19D25C7B191B7887
:100760000333B919CB5C5340DBB21800FFF758FDD7
:10077000030019007B191B7802337A68D318220012
:100780004A40D2B21A7029007B191B780333BA1978
:10079000D25C25203B181B785340DCB27B181B78B9
:1007A0000333BA19D25C0D007B181B78B919CB5CE6
:1007B0005340DBB21800FFF733FD030019007B192B
:1007C0001B7803337A68D31822004A40D2B21A70D9
:1007D0007B191B78BA19D25C7B191B780233B919C3
:1007E000CB5C5340DBB21800FFF71AFD0300242254
:1007F000BC181800FFF714FD030023707B191B7849
:100800000133BA19D25C7B191B780333B919CB5C5D
:100810005340DBB21800FFF703FD030023210E0055
:100820007C181800FFF7FCFC030023702422BA1880
:100830003300FB1812781B785340DBB22526BC1915
:100840001800FFF7EDFC030023707B191B787A6812
:10085000D318197834003A192426BB1912781B785A
:100860005340DAB27B191B787868C3184A40D2B279
:100870001A7028007B191B7801337A68D31819780D
:1008800025007A192323FB1812781B785340DAB21B
:1008900004003B181B7801337868C3184A40D2B271
:1008A0001A7020003B181B7802337A68D318197825
:1008B0007A19BB1912781B785340DAB204003B183E
:1008C0001B7802337868C3184A40D2B21A702000ED
:1008D0003B181B7803337A68D31819787A192323C5
:1008E000FB1812781B785340DAB204003B181B78CF
:1008F00003337868C3184A40D2B21A703B193A19C8
:10090000127804321A7027243B191B780F2B00D859
:10091000B4E67B681800FFF79FFC3B1900221A70B1
:1009200012E027203B181B787A68D3181B7819002F
:100930003B181B787A68D318204A525C1A703B180F
:100940003A18127801321A702723FB181B780F2BE4
:10095000E7D9FB68103BFB602622BB18BA18127857
:1009600001321A702623FB181B78092B00D85FE68A
:100970002723FB1800221A7016E027243B191B7846
:100980007A68D31819783B191B78FA68D3181A7843
:100990003B191B787868C3184A40D2B21A703B19C9
:1009A0003A19127801321A702723FB181B780F2B83
:1009B000E3D9C046C046BD460BB0F0BD0C010020D7
:1009C000F0B5CE46474680B5FBB000AFF026082410
:1009D00036190824A446BC44664430607160E82699
:1009E0000821711808208446BC4461440A604B60A9
:1009F0000023E422921908218C4608218846B84435
:100A0000C444624413600023E022921908218C46FA
:100A100008218846B844C444624413600023DC22A1
:100A2000921908218C4608218846B844C44462447F
:100A300013600023D822921908218C460821884689
:100A4000B844C444624413600023D422921908219C
:100A50008C4608218846B844C4446244136000238D
:100A6000D022921908218C4608218846B844C444F3
:100A7000624413600023AC22921908218C4608219D
:100A80008846B844C4446244136010239B1908226A
:100A9000944608229046B844C44463441800802316
:100AA0001A00002103F066FD00220023C821300057
:100AB00009180824A4460824A046B844C444614444
:100AC0000A604B6000220023C02109180824A446B4
:100AD0000824A046B844C44461440A604B60002224
:100AE0000023A02109180824A4460824A046B844DD
:100AF000C44461440A604B6000220023B8210918F5
:100B00000824A4460824A046B844C44461440A60AA
:100B10004B6000220023B02109180824A4460824B1
:100B2000A046B844C44461440A604B6000220023DC
:100B3000982109180824A4460824A046B844C444AF
:100B400061440A604B600023EC22121808218C4695
:100B500008218846B844C44462441360B1E0B82117
:100B6000E8200B180822944608229046B844C44452
:100B700063441A685B6892185B4109180824A4460C
:100B80000824A046B844C44461440A604B60994AB2
:100B9000EC231B1808218C4608218846B844C4441D
:100BA00063441B68D3181B781A004023991A0A0063
:100BB000203A002A0ADBF42308201B180820844668
:100BC000BC4463441B68D3403B6018E020235A1A9E
:100BD000F42308201B1808208446BC4463441B6887
:100BE00093401A00F02308201B1808208446BC44B8
:100BF00063441B68CB403B603B6813433B60F4237A
:100C000008229B1808229446BC4463441B68CB40CE
:100C10007B6001233A68134088220821511808207C
:100C20008446BC4461440B60002379680B408C21EE
:100C30000820091808208446BC4461440B60B82091
:100C4000E826831908218C4608218846B844C44404
:100C500063441B680821521808218C46BC44624436
:100C6000116852680E001E433E63BC23E8269B19A0
:100C70000824A4460824A046B844C44463441B681E
:100C80001A437A638319082208215218D219991835
:100C90003A6B7B6B0A604B60EC22310093190820A1
:100CA000844608208046B844C44463441B6801332A
:100CB000521808218C4608218846B844C44462442E
:100CC0001360EC22E820131808218C46082188467E
:100CD000B844C44463441B683F2B00DC3FE7BC239B
:100CE0001B1808218C4608218846B844C444634434
:100CF0001B681B00802108240C190825AC46BC4445
:100D00006444236000238424082564190825AC4624
:100D1000BC44644423600823CB1808218C46BC449F
:100D200063441B68DC2109180824A4460824A04653
:100D3000B844C44461440B60B8231B1808218C4696
:100D400008218846B844C44463441B68D821091864
:100D50000824A4460824A046B844C44461440B6057
:100D60000023121808218C4608218846B844C44440
:100D700062441360D7E0C021E8200B180822944693
:100D800008229046B844C44463441A685B689218C9
:100D90005B4109180824A4460824A046B844C4446A
:100DA00061440A604B60144AEC231B1808218C46EE
:100DB00008218846B844C44463441B68D3181B7890
:100DC0001A004023991A0A00203A002A16DBEC2365
:100DD00008201B1808208446BC4463441B68D34089
:100DE000E0220820121808208446BC4462441360A4
:100DF00030E0C0460C020020DC04002020235A1AF8
:100E0000EC2308201B1808208446BC4463441B685C
:100E100093401A00E82308201B1808208446BC448D
:100E200063441B68CB40E020082404190825AC4625
:100E3000BC44644423600823C3180824A446BC446B
:100E400063441B6813430822821808208446BC446C
:100E500062441360EC2308229B1808229446BC4489
:100E600063441B68CB40E4220821521808218C46B9
:100E7000BC44624413600123E02208215218082177
:100E80008C46BC44624411685268080018408023B4
:100E900008241B19DB19186000231A408423082139
:100EA0005B18DB191A60C020E82543190822944614
:100EB00008229046B844C44463441B688022082139
:100EC0005218D219116852680C001C43BC62C4232A
:100ED0002C001B190825AC460825A846B844C44474
:100EE00063441B681A43FA62210043180822082051
:100EF0001218D2199A18BB6AFC6A13605460EC226B
:100F000053180820844608208046B844C4446344EB
:100F10001B680133521808218C4608218846B844C2
:100F2000C44462441360EC21B960E8254B190822DF
:100F3000944608229046B844C44463441B68372B47
:100F400000DC18E7C4204319082294460822904682
:100F5000B844C44463441B681B019C46C024631905
:100F60000822904608229146B944C84443441B686D
:100F70001B0FA8260822B21808218846B84442440C
:100F800013600823F31808229046B84443441B68B2
:100F90006246134332000826961908218C46BC4449
:100FA0006644336043190820844608208046B844CC
:100FB000C44463441B681B0FAC2008268019082119
:100FC0008C46BC44604403600823D318082294462E
:100FD000BC4463441B681B011B09E422521908200E
:100FE000844608208046B844C444624413606319B0
:100FF0000822944608229046B844C44463441B68BF
:101000001B011B09E0225219082084460820804653
:10101000B844C444624413600023B9684A190821E3
:101020008C4608218846B844C4446244136028E2D0
:101030000023E822E821521808218C46082188461E
:10104000B844C444624413605AE0E420E82403191D
:101050000822944608229046B844C44463441B685E
:101060005B001B01190903190822944608229046C7
:10107000B844C44463441B68DA0E012313400B4395
:10108000021908218C4608218846B844C4446244A9
:101090001360E02003190822944608229046B844C1
:1010A000C44463441B685B001B011909031908222F
:1010B000944608229046B844C44463441B68DA0E40
:1010C000012313400B43021908218C46082188464E
:1010D000B844C44462441360E822131908218C46C2
:1010E00008218846B844C44463441B68013312197C
:1010F00008218C4608218846B844C44462441360E1
:10110000ED4AEC20E825431908218C460821884641
:10111000B844C44463441B68D3181B781A00E826FB
:10112000731908218C4608218846B844C444634496
:101130001B68934289DB00220023A02139604C19EF
:1011400008218C4608218846B844C444644422607F
:101150006360E4235B190822944608229046B84451
:10116000C44463441B688022BA181360002384229D
:10117000BA1813608023FB185C681B681A001209F8
:10118000FA671B07BB67E0235B1908229446082215
:101190009046B844C44463441B6890220824141940
:1011A00008218C46BC446444236000239424082511
:1011B000641908218C46BC4464442360BC6FFD6FF5
:1011C00023000821521808218C46BC44624412684E
:1011D00013433968E8228A1808218C46082188467A
:1011E000B844C444624413602B00942108228A1836
:1011F0000821791851180A681343A422E824121907
:1012000008218C4608218846B844C44462441360CF
:1012100010231B19082208215218D2199A180319F1
:1012200008218C4608218846B844C44463441B689E
:10123000DB00D118002200230A604B600023321922
:1012400008218C4608218846B844C444624413608F
:10125000F5E01024E826A319082208215218D21913
:101260009A18EC25AB1908218C4608218846B84409
:10127000C44463441B68DB00D3181A685B68921887
:101280005B4110001900A319BB6008220823D21883
:10129000D219BB689C466244AB193B6008239C464C
:1012A00008239846B844C4443B6863441B68DB0089
:1012B000D3181860596030002318082208215218EA
:1012C000D2199A182B1808218C4608218846B84450
:1012D000C44463441B68DB00D3181C685D68774A0C
:1012E000E8231B1808218C4608218846B844C444CA
:1012F00063441B68D3181B781A003823991A0A0014
:10130000203A002A13DBA4231B1808208446082057
:101310008046B844C44463441B68D340D8220820A4
:10132000121808208446BC446244136031E0202334
:101330005A1AA423E8201B180826B4460826B046EB
:10134000B844C44463441B6893409946A0231B18C7
:101350000820844608208046B844C44463441B687F
:10136000CB40D8200826861908229446BC446644FF
:1013700033600823C31808229446BC4463441B68A6
:101380004A4613430822821808208446BC4462441B
:101390001360A423E8269B1908229446082290464D
:1013A000B844C44463441B68CB40DC220821521873
:1013B00008218C46BC44624413600123D8220821D2
:1013C000521808218C46BC446244116852680800D7
:1013D0001840386700231A407A673A6F7B6F110014
:1013E0002143B9662B43FB6610239B190822082171
:1013F0005218D2199A18EC239B1908218C460821FF
:101400008846B844C44463441B68DB00D318B96EF3
:10141000FA6E19605A60E822931908218C46082157
:101420008846B844C44463441B68013392190821B8
:101430008C4608218846B844C44462441360E823BB
:10144000E8215B180822944608229046B844C44418
:1014500063441B682F2B00DCFBE6EC2253180820AA
:10146000844608208046B844C44463441B68013362
:10147000521808218C4608218846B844C444624466
:101480001360EC22E8215318082084460820804687
:10149000B844C44463441B680F2B00DCC8E5002338
:1014A000521808218C4608218846B844C444624436
:1014B000136000F02BFCC0464405002014050020FA
:1014C00000220023C821E82009180824A446082483
:1014D000A046B844C44461440A604B600023E8223B
:1014E000121808218C4608218846B844C444624436
:1014F000136076E0C820E826831908229446082263
:101500009046B844C44463441A685B6892185B41CF
:1015100081190824A4460824A046B844C444614460
:101520000A604B60F04AE825AB1908218C46082177
:101530008846B844C44463441B68D3181B781A0017
:1015400020239A1AD8239B1908218C460821884603
:10155000B844C44463441B68D3403B6600237B66A5
:101560000123396E7A6E0C001C40BC6500231A40C2
:10157000FA6583190822944608229046B844C44468
:1015800063441B68B96DFA6D0C001C433C62CC23AC
:101590009B190824A4460824A046B844C4446344C4
:1015A0001B681A437A628319082208215218D2193B
:1015B0009A183B6A7C6A136054603200AB190821A8
:1015C0008C4608218846B844C44463441B680133F0
:1015D000AA1808218C4608218846B844C4446244AD
:1015E0001360E820E8254319082294460822904613
:1015F000B844C44463441B682F2B00DC7AE7EC2317
:101600005B190822944608229046B844C4446344B7
:101610001A680F239B1A1022521908218C460821A0
:101620008846B844C4446244DB00D3181A685B6837
:10163000C82461190826B4460826B046B844C444F4
:10164000614409685140B961CC2149190826B44662
:101650000826B046B844C444614409685940F96159
:101660006319082208215218D2199A18BB69FC691B
:10167000136054600023421908218C4608218846D3
:10168000B844C444624413605CE2E823E8229B1837
:101690000822944608229046B844C44463441A6819
:1016A00013005B009B185B0019000A00203A002A17
:1016B0000BDB84231B021341D022082012180820C0
:1016C0008446BC44624413601EE020235A1A8423DB
:1016D0001B0293401A000023CB40D0200824041999
:1016E0000825AC46BC44644423600823C31808247E
:1016F000A446BC4463441B68134308228218082094
:101700008446BC446244136084231B020B41D422F0
:101710000821521808218C46BC4462441360D0232F
:1017200008229B1808229446BC44634418685968F0
:10173000C823E8241B190822944608229046B8447E
:10174000C44463441A6803001340A02208255219B8
:101750000825AC46BC4462441360CC231B19082204
:10176000944608229046B844C44463441A680B0067
:101770001340A42108228A1808208446BC446244ED
:101780001360E8231B190822944608229046B844A7
:10179000C44463441B681A009B00D21A53001A0009
:1017A00013002A331A001300203B002B10DB082003
:1017B000091808208446BC4461440968D940C823FC
:1017C00008201B1808208446BC446344196026E0A6
:1017D00020239B1AA0210820091808208446BC4415
:1017E0006144086849680C009C4023000100D14016
:1017F000C820082404190825AC46BC446444216070
:10180000082141180824A446BC44614409681943CE
:101810000823C31808208446BC4463441960A423E9
:1018200008215B1808218C46BC4463441B68D340E4
:10183000CC220821521808218C46BC446244136013
:101840009720E8240319082208215218D2199A185F
:10185000C82308215B1808218C46BC4463441B78CC
:10186000137003190822944608229046B844C444D1
:1018700063441B781B09DBB259B203190822944652
:1018800008229046B844C444634400229A56012377
:1018900013405BB20B435BB2021908218C4608214E
:1018A0008846B844C44462441370E8231B190822D4
:1018B000944608229046B844C44463441A6813000E
:1018C0005B009B185B0019000A00203A002A0DDB20
:1018D000F023DB011341C02208201218082084469F
:1018E000BC446244136020E08C02002020235A1A7A
:1018F000F023DB0193401A000023CB40C0200824D2
:1019000004190825AC46BC44644423600823C3186A
:101910000824A446BC4463441B681343082282186D
:1019200008208446BC4462441360F023DB010B4171
:10193000C4220821521808218C46BC44624413601A
:10194000C02308229B1808229446BC4463441868AC
:101950005968C823E8241B19082294460822904697
:10196000B844C44463441A6803001340982208250D
:1019700052190825AC46BC4462441360CC231B19A1
:101980000822944608229046B844C44463441A6826
:101990000B0013409C2108228A1808208446BC446E
:1019A00062441360E8231B190822944608229046DB
:1019B000B844C44463441B681A009B00D21A530005
:1019C0001A0013002B331A001300203B002B10DBEE
:1019D0000820091808208446BC4461440968D9409D
:1019E000B82308201B1808208446BC4463441960AF
:1019F00026E020239B1A98210820091808208446F5
:101A0000BC446144086849680C009C402300010004
:101A1000D140B820082404190825AC46BC446444CD
:101A20002160082141180824A446BC446144096887
:101A300019430823C31808208446BC446344196032
:101A40009C2308215B1808218C46BC4463441B6816
:101A5000D340BC220821521808218C46BC44624461
:101A600013609621E8254B19082208201218D21974
:101A70009A18B82308201B1808208446BC446344E5
:101A80001B781370D42043190822944608229046EC
:101A9000B844C44463441B681B0142190824A4468B
:101AA0000824A046B844C4446244136097235B19D9
:101AB0000822944608229046B844C44463441B78E4
:101AC0001A014B1908218C4608218846B844C444A1
:101AD00063441B78D118DB4AE82463190826B4460E
:101AE0000826B046B844C44463441B689B01D3181D
:101AF0005B5C1A000F231A40431908218C46082109
:101B00008846B844C44463441B68134342190821FF
:101B10008C4608218846B844C44462441360631963
:101B20000822944608229046B844C44463441B6883
:101B30000133621908218C4608218846B844C44400
:101B400062441360E822E820131808218C4608211B
:101B50008846B844C44463441B68072B00DC94E502
:101B60000023D02109180824A4460824A046B8441C
:101B7000C44461440B600023121808218C460821DC
:101B80008846B844C4446244136058E0D021E82435
:101B90000B190822944608229046B844C444634472
:101BA0001B685B000A190820844608208046B84458
:101BB000C44462441360A44AE82003190825AC46D3
:101BC0000825A846B844C44463441B68D3181B784E
:101BD0001A0020239A1AD4231B190825AC4608257D
:101BE000A846B844C44463441B68D3401A00012388
:101BF0001A400B190825AC460825A846B844C44429
:101C000063441B6813430A1908218C46082188463F
:101C1000B844C4446244136003190822944608225D
:101C20009046B844C44463441B6801330219082138
:101C30008C4608218846B844C44462441360E823B3
:101C4000E8229B1808218C4608218846B844C444E1
:101C500063441B681F2B99DDD82115004B190822FE
:101C6000944608229046B844C44463441B68AC20A0
:101C700042190824A4460824A046B844C444624437
:101C80001360DC2463190822944608229046B84465
:101C9000C44463441A68D0235B190826B446082656
:101CA000B046B844C44463441B6853404A190821F1
:101CB0008C4608218846B844C44462441360290015
:101CC00043190822944608229046B844C444634409
:101CD0001B6862180820844608208046B844C44423
:101CE00062441360EC225318082084460820804682
:101CF000B844C44463441B680133521808218C461D
:101D000008218846B844C44462441360EC20F8605B
:101D1000E822831808218C4608218846B844C44428
:101D200063441B680F2B01DCFFF7CAFBD8239B1809
:101D300008218C4608218846B844C44463441B6883
:101D40003B6500237B653B6D1B00FB640023BB648C
:101D5000DC2310009B180822944608229046B844C1
:101D6000C44463441B683B6400237B64BC6CFD6C0F
:101D70002300396C7A6C0E00334398469826361847
:101D800008239C4608239946B944CC4466444346FC
:101D900033602B0013439C22010052180820844614
:101DA00008208046B844C444624413600023F868A5
:101DB000421808218C4608218846B844C44462442D
:101DC0001360D6E0B021E8200B18082294460822C0
:101DD0009046B844C44463441A685B6892185B41F7
:101DE00009180824A4460824A046B844C444614401
:101DF0000A604B60154AEC231B1808218C46082109
:101E00008846B844C44463441B68D3181B781A003E
:101E100040239B1A1A00203A002A19DB9C2109183A
:101E20000820844608208046B844C44461440968B8
:101E3000D140B0220820121808208446BC446244D5
:101E4000116036E0DC020020BC0200204C020020C1
:101E50002022D21A9C21E82009180824A44608242C
:101E6000A046B844C4446144096891400A009821DE
:101E700009180820844608208046B844C4446144B8
:101E80000968D940B020082404190825AC46BC4490
:101E900064442160082141180824A446BC446144DC
:101EA000096811430822821808208446BC44624411
:101EB00011609C22E824121908218C4608218846CA
:101EC000B844C44462441268DA40B42308215B1861
:101ED00008218C46BC4463441A600123B0220821C7
:101EE000521808218C46BC446244116852680800AC
:101EF0001840B86300231A40FA63B0202500031984
:101F00000822944608229046B844C44463441B689F
:101F1000B96BFA6B0C001C433C61B4232C001B19F9
:101F20000825AC460825A846B844C44463441B6849
:101F30001A437A6121004318082208201218D21986
:101F40009A183B697C6913605460EC22531808208E
:101F5000844608208046B844C44463441B68013367
:101F6000521808218C4608218846B844C44462446B
:101F70001360EC23E8229B1808218C460821884630
:101F8000B844C44463441B683F2B00DC1AE7B02309
:101F90009B180822944608229046B844C4446344DF
:101FA0001A685B6810001900BD467BB0C0BCB9461A
:101FB000B046F0BDF0B5E7B000AF00F011FD00F0A5
:101FC00049FB00F0CFFB00F09DFBCF4BAC2149005B
:101FD0000C005B184022BA189A18CC4B43CB43C272
:101FE0001B681360CA4ACB4B942040004021411823
:101FF000C81902604360C84B21005B184022BA1820
:102000009A18C64B43CB43C21B681360C44BAC2029
:1020100040001B184022BA189A18C24B11001A002F
:1020200058CA58C113680B6013790B71BE4B1B184B
:102030004022BA189A18BB4B11001A0038CA38C18E
:1020400013680B6013790B71B84B1B184022BA1838
:102050009A18B74B32CB32C21B681360B54B1B18B2
:102060004022BA189A18B24B13CB13C21B681360E4
:1020700000220023A821490040200918C9190A603C
:102080004B6000220023A421490040200918C919EF
:102090000A604B600022002390214900402009186B
:1020A000C9190A604B60002200238C21490040209E
:1020B0000918C9190A604B6001235B423422402190
:1020C0005218D1199C48112201F0DEFD0023A222F2
:1020D000520040215218D219136024E0A22040007F
:1020E0004023C318DB191B685A1C8D4BAC267600A5
:1020F0009B1940218C46BC446344995C8B4B9B19D3
:102100004022BA189A184023C318DB191B68D2184A
:102110000B1C13704023C318DB191B6801334022CA
:102120008218D2191360A2235B0040229B18DB198E
:102130001B680F2BD2DD7A4BAC2252009B18402239
:102140009446BC4463441B78402B00D105E200DD7B
:102150001CE2302B4AD000DD18E2102B02D0202BDD
:1021600036D013E20023A022520040215218D21987
:10217000136024E0A02040004023C318DB191B6833
:102180005A1C674BAC2676009B1940218C46BC44F8
:102190006344995C674B9B194022BA189A184023F4
:1021A000C318DB191B68D2180B1C13704023C3180B
:1021B000DB191B68013340228218D2191360A02357
:1021C0005B0040229B18DB191B680F2BD2DDDDE181
:1021D0004023FA18582340215B18D91910234020B6
:1021E0001B18DB19180000F097FBCFE100239E229B
:1021F000520040215218D219136054E09E21490028
:102200004023CB18DB191A680F239A1A474BAC20CE
:1022100040001B1840208446BC4463449B5CBB6167
:102220000023FB614023CB18DB191B68DA00130085
:10223000203B002B03DBB9699940F9630BE02023B5
:102240009B1AB869F9690600DE4033009140F963D2
:10225000F96B1943F963BB699340BB63A822520031
:102260004023D318DB191B68B86BF96B04002343B8
:10227000BB60AA235B0040241B19DB191B680B43BE
:10228000FB604023D318D919BA68FB680A604B6019
:102290009E2252004023D318DB191B6801334021D2
:1022A0005218D21913609E235B0040229B18DB1941
:1022B0001B68072BA2DD00239C22520040215218EC
:1022C000D21913606EE09C2149004023CB18DB1922
:1022D0001A6807239A1A154BAC2040001B1840209F
:1022E0008446BC4463449B5C3B6100237B61402388
:1022F000CB18DB191B68DA001300203B002B1DDB19
:1023000039699940796325E000FFFFFF9C4500088B
:10231000412178377534725AF0FEFFFFAC45000852
:10232000DCFEFFFFBC450008C8FEFFFFB8FEFFFF54
:10233000D0450008A8FEFFFF7C05002020239B1A43
:10234000386979690600DE40330091407963796B22
:10235000194379633B6993403B63A42040004023C9
:10236000C318DB191B68396B7A6B0E001E433E6085
:10237000A6235B0040241B19DB191B681A437A60F3
:102380004023C318D9193A687B680A604B609C22C5
:1023900052004023D318DB191B6801334021521827
:1023A000D21913609C235B0040229B18DB191B6829
:1023B000072B88DD942676004023F318DB191A6872
:1023C0005B68A821490040200918C91908684968B4
:1023D000FEF7F6FA02000B00902149004020091890
:1023E000C9190A604B604023F318DB191A685B684F
:1023F000A421490040200918C91908684968FEF756
:10240000DFFA02000B008C21490040200918C9198D
:102410000A604B6000239A22520040215218D219C0
:10242000136090E09A235B0040229B18DB191B6825
:10243000D9000A00203A002A08DB92235B004020E2
:102440001B18DB191B68D340BB6214E020235A1A07
:1024500092235B0040201B18DB191B6893401A0075
:1024600090235B0040201B18DB191B68CB40BB622C
:10247000BB6A1343BB6292235B0040229B18DB19AB
:102480001B68CB40FB629A2676004023F318DB19C9
:102490001A680F23991A2823FB1818786A4BAC2264
:1024A00052009B184022BA189A18031C5354402318
:1024B000F318DB191B68D9000A00203A002A08DB50
:1024C0008E235B0040201B18DB191B68D3403B6246
:1024D00014E020235A1A8E235B0040201B18DB19BE
:1024E0001B6893401A008C235B0040201B18DB19EB
:1024F0001B68CB403B623B6A13433B628E235B000D
:1025000040229B18DB191B68CB407B629A26760021
:102510004023F318DB191A680723991A2023FB18A4
:102520001878494BAC2252009B184022BA189A18CE
:10253000031C53544023F318DB191B68013340225A
:10254000B218D21913609A235B0040229B18DB1942
:102550001B68072B00DC65E718E068264023F318AA
:10256000DA19482340215B18DB1911001800FDF728
:10257000C9FE4023FA18102340215B18D9194023C3
:10258000F318DB191800FEF701F8C0462E4BAC22F9
:1025900052009B1840218C46BC4463441B78FE2BA0
:1025A00007D12A4B9B184022BA189A18002313709F
:1025B00008E0264BAC2252009B184022BA189A1809
:1025C0000123137000239822520040215218D2197F
:1025D000136025E0982676004023F318DB191B686A
:1025E000581C194BAC22520014009B184022BA18F8
:1025F0009A184023F318DB191B68D3181978134B6A
:1026000022009B184022BA189A180B1C135440231E
:10261000F318DB191B6801334022B218D21913607A
:1026200098235B0040229B18DB191B680F2BD1DD20
:1026300001235B42202240215218D1190448112263
:1026400001F082FAE2E4C046A8FEFFFFC8FEFFFFE9
:102650007C05002090B599B000AF2C243B191800E0
:1026600034231A00002101F085FF1C23FB181800F9
:1026700010231A00002101F07DFF3B1D18001823D4
:102680001A00002101F076FF21007B1802221A6057
:102690007B180122DA607B1810221A617B18002255
:1026A0005A627B18180000F01BFC031E01D000F0DA
:1026B0009FF81C217B1807221A607B1800225A60A1
:1026C0007B1800229A607B180022DA607B180021B8
:1026D000180000F08BFF031E01D000F089F83B1DAD
:1026E00001221A603B1D00229A603B1D180001F078
:1026F000E9F8031E01D000F07BF8C046BD4619B0D2
:1027000090BD000080B500AF144B154A1A60134B02
:10271000962212025A60114B00229A600F4B00223F
:10272000DA600E4B00221A610C4B0C225A610B4BE3
:1027300000229A61094B0022DA61084B00221A62DA
:10274000064B00225A62054B180001F0A9F9031E3E
:1027500001D000F04DF8C046BD4680BD7C0500208C
:102760000038014090B589B000AF0C243B19180027
:1027700014231A00002101F0FDFE1B4B5A691A4B6D
:102780008021C9030A435A61174B5A698023DB032E
:102790001340BB60BB68144B5A69134B80218902FC
:1027A0000A435A61104B5A6980239B0213407B6095
:1027B0007B6821007B180D4A1A607B1802225A6040
:1027C0007B1800229A607B180322DA607B180122B2
:1027D0001A617A189023DB051100180000F018FA2E
:1027E000C046BD4609B090BD001002400480000004
:1027F00080B500AF72B6C046FEE7000080B582B07B
:1028000000AF0F4B9A690E4B01210A439A610C4BA2
:102810009B69012213407B607B68094BDA69084B96
:10282000802149050A43DA61054BDA6980235B059B
:1028300013403B603B68C046BD4602B080BDC04609
:102840000010024090B58BB000AF786014243B19A3
:10285000180014231A00002101F08CFE7B681B680D
:102860001D4A934233D11D4B9A691C4B8021C901EB
:102870000A439A61194B9A698023DB0113403B613B
:102880003B69164B5A69154B802189020A435A61EC
:10289000124B5A6980239B021340FB60FB683B1973
:1028A000C022D2001A6021007B1802225A607B18D5
:1028B00000229A607B180322DA607B1801221A61D9
:1028C0007A189023DB051100180000F0A1F9C0462A
:1028D000BD460BB090BDC04600380140001002401C
:1028E00080B500AFFEE780B500AFFEE780B500AF72
:1028F000C046BD4680BD80B500AFC046BD4680BD68
:1029000080B500AF00F0B4F8C046BD4680BD80B5CC
:1029100000AFC046BD4680BD80B586B000AFF86050
:10292000B9607A6000237B6110E07B69FA68D31894
:1029300019787B69BA68D3181A787B697868C318E4
:102940004A40D2B21A707B6901337B617B690F2BDD
:10295000EBDDC046C046BD4606B080BD1348854687
:10296000FFF7D5FF12480168090E124A914205D1BE
:102970001148124901601248124901601248134976
:10298000134A002302E0D458C4500433C4188C42C4
:10299000F9D3104A104C002301E013600432A24224
:1029A000FBD301F0C3FDFFF705FBFEE70018002095
:1029B000040000001F000000181002400100000089
:1029C0000000014000000000000000206005002021
:1029D000204600086005002008060020FEE70000F1
:1029E00080B500AF074B1A68064B10210A431A60E6
:1029F000002000F009F8FFF701FF00231800BD4692
:102A000080BDC0460020024090B583B000AF786022
:102A1000144B1C68144B1B781900FA239800FDF71F
:102A200073FB030019002000FDF76EFB0300180084
:102A300000F0E1F8031E01D001230FE07B68032BB7
:102A40000BD8796801235B420022180000F0BEF821
:102A5000064B7A681A60002300E001231800BD4687
:102A600003B090BD540500205C05002058050020EF
:102A700080B500AF054B1B781A00054B1B68D218B8
:102A8000034B1A60C046BD4680BDC0465C050020B1
:102A90000406002080B500AF024B1B681800BD463D
:102AA00080BDC0460406002090B583B000AF020090
:102AB0003960FB1D1A70FB1D1B787F2B28D82F4A0D
:102AC000FB1D1B785BB29B08C0339B009B58FA1D13
:102AD0001278110003220A40D200FF2191400A001F
:102AE000D2431A4011003B689B01FF221A40FB1D94
:102AF0001B78180003230340DB009A401F48FB1D8E
:102B00001B785BB29B080A43C0339B001A5031E02C
:102B10001B4AFB1D1B7819000F230B40083B9B0829
:102B200006339B00D31804331B68FA1D127811007A
:102B300003220A40D200FF2191400A00D2431A40EA
:102B400011003B689B01FF221A40FB1D1B781800F7
:102B500003230340DB009A400948FB1D1B781C003F
:102B60000F232340083B9B080A4306339B00C318EE
:102B700004331A60C046BD4603B090BD00E100E0DA
:102B800000ED00E080B582B000AF78607B685A1E2F
:102B900080235B049A4201D3012310E00A4B7A6838
:102BA000013A5A6001235B4203211800FFF77CFFC2
:102BB000054B00229A60044B07221A60002318007C
:102BC000BD4602B080BDC04610E000E080B584B0D4
:102BD00000AFB9607A600F217B18021C1A70BA68C6
:102BE0007B181B785BB211001800FFF75DFFC04631
:102BF000BD4604B080BD80B582B000AF78607B6810
:102C00001800FFF7BFFF03001800BD4602B080BDEB
:102C100080B586B000AF7860396000237B6149E100
:102C20003B681B6801217A6991400A001340FB60F0
:102C3000FB68002B00D13AE13B685B68032213403C
:102C4000012B05D03B685B6803221340022B30D177
:102C50007B689B683B617B695B0003229A401300A1
:102C6000DA433B6913403B613B68DA687B695B0090
:102C70009A4013003A6913433B617B683A699A6052
:102C80007B685B683B6101227B699A401300DA43F1
:102C90003B6913403B613B685B681B0901221A409A
:102CA0007B699A4013003A6913433B617B683A6938
:102CB0005A603B685B6803221340032B17D07B6884
:102CC000DB683B617B695B0003229A401300DA43B7
:102CD0003B6913403B613B689A687B695B009A40A3
:102CE00013003A6913433B617B683A69DA603B68D9
:102CF0005B6803221340022B23D17B69DA087B68CF
:102D000008329200D3583B617B69072213409B0035
:102D10000F229A401300DA433B6913403B613B6842
:102D20001A697B6907210B409B009A4013003A699E
:102D300013433B617B69DA087B680832920039698A
:102D4000D1507B681B683B617B695B0003229A4022
:102D50001300DA433B6913403B613B685B68032225
:102D60001A407B695B009A4013003A6913433B6148
:102D70007B683A691A603B685A68C0239B0213401B
:102D800000D194E0514B9A69504B01210A439A615A
:102D90004E4B9B6901221340BB60BB684C4A7B6968
:102DA0009B0802339B009B583B617B6903221340C5
:102DB0009B000F229A401300DA433B6913403B61AA
:102DC0007A689023DB059A420DD07B68414A934292
:102DD00007D07B68404A934201D1022304E00523D7
:102DE00002E0012300E000237A6903210A409200F7
:102DF00093403A6913433B6135497B699B08023331
:102E00009B003A695A50354B9B683B61FB68DA433B
:102E10003B6913403B613B685A6880235B03134066
:102E200003D03A69FB6813433B612C4B3A699A60C3
:102E30002A4BDB683B61FB68DA433B6913403B612B
:102E40003B685A6880239B03134003D03A69FB68B0
:102E500013433B61214B3A69DA60204B5B683B616D
:102E6000FB68DA433B6913403B613B685A68802347
:102E70009B02134003D03A69FB6813433B61174B35
:102E80003A695A60154B1B683B61FB68DA433B6942
:102E900013403B613B685A6880235B02134003D0B8
:102EA0003A69FB6813433B610C4B3A691A607B69D2
:102EB00001337B613B681A687B69DA40131E00D0DE
:102EC000AEE6C046C046BD4606B080BD001002401A
:102ED00000000140000400480008004800040140D0
:102EE00080B588B000AF78607B68002B02D10123E9
:102EF00000F076FB7B681B680122134000D18EE056
:102F0000C54B5B680C221340042B0ED0C24B5B6890
:102F10000C221340082B17D1BF4B5A68C0235B0209
:102F20001A4080235B029A420ED1BB4B1A68802361
:102F30009B02134000D171E07B685B68002B00D0DE
:102F40006CE0012300F04CFB7B685B68012B07D130
:102F5000B14B1A68B04B802149020A431A602FE036
:102F60007B685B68002B0CD1AB4B1A68AA4BAB4952
:102F70000A401A60A84B1A68A74BA9490A401A6070
:102F80001EE07B685B68052B0ED1A34B1A68A24B31
:102F90008021C9020A431A609F4B1A689E4B802108
:102FA00049020A431A600BE09B4B1A689A4B9B49F3
:102FB0000A401A60984B1A68974B99490A401A6060
:102FC0007B685B68002B14D0FFF764FD0300BB61D6
:102FD00008E0FFF75FFD0200BB69D31A642B01D93B
:102FE0000323FDE28C4B1A6880239B021340F0D030
:102FF00015E0FFF74FFD0300BB6108E0FFF74AFD56
:103000000200BB69D31A642B01D90323E8E2824B87
:103010001A6880239B021340F0D100E0C0467B6811
:103020001B680222134000D16CE07B4B5B680C22D2
:1030300013400ED0784B5B680C221340082B1FD135
:10304000754B5A68C0235B021A4080231B029A42C8
:1030500016D1714B1B680222134005D07B68DB68D8
:10306000012B01D00123BBE26B4B1B68F822934379
:1030700019007B681B69DA00674B0A431A6041E05C
:103080007B68DB68002B24D0634B1A68624B0121FC
:103090000A431A60FFF7FEFC0300BB6108E0FFF77C
:1030A000F9FC0200BB69D31A022B01D9032397E272
:1030B000594B1B6802221340F1D0574B1B68F82272
:1030C000934319007B681B69DA00534B0A431A606B
:1030D00018E0514B1A68504B01218A431A60FFF7E0
:1030E000D9FC0300BB6108E0FFF7D4FC0200BB6918
:1030F000D31A022B01D9032372E2474B1B68022229
:103100001340F1D17B681B680822134036D07B68DE
:10311000DB69002B19D0404B5A6A3F4B01210A430F
:103120005A62FFF7B7FC0300BB6108E0FFF7B2FC8F
:103130000200BB69D31A022B01D9032350E2364B9C
:103140005B6A02221340F1D018E0334B5A6A324BCB
:1031500001218A435A62FFF79DFC0300BB6108E02E
:10316000FFF798FC0200BB69D31A022B01D9032395
:1031700036E2294B5B6A02221340F1D17B681B685F
:103180000422134000D1B5E01F203B1800221A7022
:10319000214BDA6980235B05134010D11E4BDA699D
:1031A0001D4B802149050A43DA611B4BDA698023F4
:1031B0005B051340FB60FB683B1801221A70194B3A
:1031C0001A6880235B0013401AD1164B1A68154BFE
:1031D000802149000A431A60FFF75CFC0300BB61D1
:1031E00008E0FFF757FC0200BB69D31A642B01D932
:1031F0000323F5E10B4B1A6880235B001340F0D0EA
:103200007B689B68012B0FD1034B1A6A024B01218B
:103210000A431A6236E0C04600100240FFFFFEFF7C
:10322000FFFFFBFF007000407B689B68002B0CD108
:10323000CA4B1A6AC94B01218A431A62C74B1A6AE0
:10324000C64B04218A431A621CE07B689B68052BED
:103250000CD1C24B1A6AC14B04210A431A62BF4BFC
:103260001A6ABE4B01210A431A620BE0BB4B1A6A71
:10327000BA4B01218A431A62B84B1A6AB74B042130
:103280008A431A627B689B68002B14D0FFF702FC0C
:103290000300BB6109E0FFF7FDFB0200BB69D31A25
:1032A000AF4A934201D903239AE1AC4B1B6A022235
:1032B0001340F0D013E0FFF7EDFB0300BB6109E022
:1032C000FFF7E8FB0200BB69D31AA54A934201D974
:1032D000032385E1A14B1B6A02221340F0D11F2377
:1032E000FB181B78012B05D19C4BDA699B4B9D4940
:1032F0000A40DA617B681B681022134063D07B6848
:103300005B69012B2AD1954B5A6B944B04210A43DC
:103310005A63924B5A6B914B01210A435A63FFF750
:10332000B9FB0300BB6108E0FFF7B4FB0200BB6917
:10333000D31A022B01D9032352E1884B5B6B022283
:103340001340F1D0854B5B6BF822934319007B68E7
:103350009B69DA00814B0A435A6334E07B685B69FE
:10336000053311D17D4B5A6B7C4B04218A435A6340
:103370007A4B5B6BF822934319007B689B69DA00F8
:10338000764B0A435A631EE0744B5A6B734B04210D
:103390000A435A63714B5A6B704B01218A435A633B
:1033A000FFF778FB0300BB6108E0FFF773FB020047
:1033B000BB69D31A022B01D9032311E1674B5B6B65
:1033C00002221340F1D17B681B68202213405CD09D
:1033D000624B5B680C2213400C2B0ED05F4B5B687A
:1033E0000C221340082B14D15C4B5A68C0235B029B
:1033F0001A40C0235B029A420BD1584B5A6B802370
:103400009B02134040D07B681B6A012B3CD00123F8
:10341000E6E07B681B6A002B1BD0504B5A6B4F4B6E
:10342000802149020A435A63FFF734FB0300BB6162
:1034300008E0FFF72FFB0200BB69D31A022B01D96A
:103440000323CDE0454B5A6B80239B021340F0D001
:103450001BE0424B5A6B414B43490A405A63FFF70A
:1034600019FB0300BB6108E0FFF714FB0200BB6916
:10347000D31A022B01D90323B2E0384B5A6B8023B5
:103480009B021340F0D100E0C0467B685B6A002BD2
:1034900000D1A4E0314B5B680C221340082B00D113
:1034A00078E07B685B6A022B4CD12C4B1A682B4B63
:1034B0002E490A401A60FFF7EDFA0300BB6108E0ED
:1034C000FFF7E8FA0200BB69D31A022B01D90323E4
:1034D00086E0224B1A6880239B041340F0D11F4BD7
:1034E000DB6A0F22934319007B681A6B1B4B0A435C
:1034F000DA621A4B5B681E4A134019007B68DA6A6D
:103500007B689B6A1A43154B0A435A60134B1A682F
:10351000124B802149040A431A60FFF7BBFA0300EB
:10352000BB6108E0FFF7B6FA0200BB69D31A022BB1
:1035300001D9032354E0094B1A6880239B041340EC
:10354000F0D04CE0054B1A68044B08490A401A6059
:10355000FFF7A0FA0300BB6115E0C046001002406F
:1035600088130000FFFFFFEFFFFFFEFFFFFFFFFEDE
:10357000FF7FC2FFFFF78EFA0200BB69D31A022B4E
:1035800001D903232CE0184B1A6880239B041340B5
:10359000F0D124E07B685B6A012B01D101231FE09D
:1035A000114B5B687B61104BDB6A3B617A69C0231E
:1035B0005B021A407B689B6A9A420ED13B690F22DC
:1035C0001A407B681B6B9A4207D17A69F0239B03F0
:1035D0001A407B68DB6A9A4201D0012300E0002395
:1035E0001800BD4608B080BD0010024080B584B010
:1035F00000AF786039607B68002B01D10123BFE008
:10360000614B1B68012213403A689A4211D95E4B04
:103610001B680122934319005B4B3A680A431A6006
:10362000594B1B68012213403A689A4201D001238A
:10363000A6E07B681B680222134015D07B681B68DC
:103640000422134006D0514B5A68504BE021C90068
:103650000A435A604D4B5B68F022934319007B6824
:103660009A684A4B0A435A607B681B6801221340E0
:103670004CD07B685B68012B07D1444B1A688023D0
:103680009B02134020D101237AE07B685B68022B08
:1036900007D13E4B1A6880239B04134014D10123A9
:1036A0006EE07B685B68032B07D1384B5A6B802335
:1036B0009B02134008D1012362E0344B1B680222B5
:1036C000134001D101235BE0304B5B68032293433D
:1036D00019007B685A682D4B0A435A60FFF7DAF9E4
:1036E0000300FB6009E0FFF7D5F90200FB68D31A7D
:1036F000274A934201D9032342E0244B5B680C2202
:103700001A407B685B689B009A42ECD11E4B1B6899
:10371000012213403A689A4211D21B4B1B680122C6
:1037200093431900184B3A680A431A60164B1B68FA
:10373000012213403A689A4201D0012320E07B68BD
:103740001B680422134009D0104B5B68114A1340D8
:1037500019007B68DA680D4B0A435A6000F020F8C4
:1037600001000A4B5B681B090F2213400A4AD35C15
:103770000A00DA40094B1A600020FFF745F90023E0
:103780001800BD4604B080BD002002400010024079
:1037900088130000FFF8FFFFE045000854050020F3
:1037A00080B586B000AF0023FB600023BB60002320
:1037B0007B6100237B6000233B612D4B5B68FB60DA
:1037C000FB680C2213400C2B46D048D8042B02D0A7
:1037D000082B03D043E0274B3B6143E0FB689B0C85
:1037E0000F221340244AD35C7B60214BDB6A0F22FB
:1037F0001340224AD35CBB60FA68C0235B021A40C4
:1038000080235B029A4209D1B9681A48FCF77CFC14
:1038100003001A007B6853437B611AE0FA68C023F7
:103820005B021A40C0235B029A4209D1B96814486E
:10383000FCF76AFC03001A007B6853437B6108E0D5
:10384000B9680C48FCF760FC03001A007B6853431E
:103850007B617B693B6105E0094B3B6102E0054B05
:103860003B61C0463B691800BD4606B080BDC046FE
:103870000010024000127A00F845000808460008CF
:10388000006CDC0280B500AF024B1B681800BD461F
:1038900080BDC0465405002080B500AFFFF7F2FFA1
:1038A0000100064B5B681B0A07221340044AD35CE5
:1038B000D9400B001800BD4680BDC0460010024034
:1038C000F045000880B586B000AF786000233B610A
:1038D0000023FB607B681A6880235B02134000D1E1
:1038E0008EE017203B1800221A70674BDA6980239C
:1038F0005B05134010D1644BDA69634B80214905A5
:103900000A43DA61604BDA6980235B051340BB60D0
:10391000BB683B1801221A705C4B1A6880235B005D
:1039200013401AD1594B1A68584B802149000A4359
:103930001A60FFF7AFF803003B6108E0FFF7AAF851
:1039400002003B69D31A642B01D9032397E04F4B44
:103950001A6880235B001340F0D04B4B1A6AC023D7
:103960009B001340FB60FB68002B34D07B685A68D7
:10397000C0239B001340FA689A422CD0424B1B6A2A
:10398000434A1340FB60404B1A6A3F4B8021490277
:103990000A431A623C4B1A6A3B4B3E490A401A6280
:1039A000394BFA681A62FB680122134013D0FFF703
:1039B00071F803003B6109E0FFF76CF802003B6916
:1039C000D31A354A934201D9032358E02E4B1B6A80
:1039D00002221340F0D02C4B1B6A2D4A13401900D1
:1039E0007B685A68284B0A431A621723FB181B7816
:1039F000012B05D1244BDA69234B28490A40DA61AF
:103A00007B681B680122134009D01F4B1B6B0322EC
:103A1000934319007B689A681B4B0A431A637B68BF
:103A20001B682022134009D0174B1B6B10229343B5
:103A300019007B68DA68144B0A431A637B681A68BA
:103A400080239B02134009D00F4B1B6B80229343B2
:103A500019007B685A690C4B0A431A637B681A6821
:103A60008023DB00134009D0074B1B6B402293439C
:103A700019007B681A69044B0A431A630023180073
:103A8000BD4606B080BDC046001002400070004038
:103A9000FFFCFFFFFFFFFEFF88130000FFFFFFEFAB
:103AA00080B582B000AF78607B68002B01D1012324
:103AB00044E07B68DB6F002B07D17B687822002114
:103AC00099547B681800FEF7BDFE7B682422DA67F4
:103AD0007B681B681A687B681B6801218A431A602F
:103AE0007B68180000F0B8F90300012B01D1012315
:103AF00024E07B685B6A002B03D07B68180000F031
:103B0000EBFA7B681B685A687B681B680D490A40A2
:103B10005A607B681B689A687B681B682A218A4305
:103B20009A607B681B681A687B681B6801210A43DE
:103B30001A607B68180000F083FB03001800BD4684
:103B400002B080BDFFB7FFFF80B58AB002AFF8605A
:103B5000B9603B60BB1D1A80FB68DB6F202B00D077
:103B60008DE0BB68002B03D0BB1D1B88002B01D14F
:103B7000012385E0FB689A6880235B019A4209D1A2
:103B8000FB681B69002B05D1BB680122134001D0E3
:103B9000012375E0FB68842200219950FB682122F3
:103BA000DA67FEF777FF03007B61FB68BA1D5021DF
:103BB00012885A52FB68BA1D522112885A52FB6869
:103BC0009A6880235B019A4208D1FB681B69002B2D
:103BD00004D10023FB61BB68BB6103E0BB68FB61F0
:103BE0000023BB6130E07A69F8683B6800931300FA
:103BF0000022802100F0CCFB031E04D0FB682022B1
:103C0000DA6703233CE0FB69002B0BD1BB691A8800
:103C1000FB681B68D205D20D92B21A85BB690233CC
:103C2000BB6108E0FB691A78FB681B6892B21A85D1
:103C3000FB690133FB61FB6852229B5A9BB2013B3B
:103C400099B2FB6852229952FB6852229B5A9BB24E
:103C5000002BC8D17A69F8683B68009313000022F2
:103C6000402100F095FB031E04D0FB682022DA6798
:103C7000032305E0FB682022DA67002300E002232B
:103C80001800BD4608B080BD80B58AB002AFF860AC
:103C9000B9603B60BB1D1A80FB6880229B58202BBB
:103CA00000D0D1E0BB68002B03D0BB1D1B88002BCC
:103CB00001D10123C9E0FB689A6880235B019A4225
:103CC00009D1FB681B69002B05D1BB680122134099
:103CD00001D00123B9E0FB68842200219950FB68E0
:103CE000802222219950FB6800221A66FEF7D2FE3C
:103CF00003007B61FB68BA1D582112885A52FB6889
:103D0000BA1D5A2112885A52FB689A6880235B01B7
:103D10009A420DD1FB681B69002B04D1FB685C2221
:103D20004C4999522EE0FB685C22FF21995229E010
:103D3000FB689B68002B0DD1FB681B69002B04D12D
:103D4000FB685C22FF2199521CE0FB685C227F210A
:103D5000995217E0FB689A6880235B059A420DD15F
:103D6000FB681B69002B04D1FB685C227F21995200
:103D700008E0FB685C223F21995203E0FB685C226B
:103D8000002199521223FB18FA685C21525A1A80BA
:103D9000FB689A6880235B019A4208D1FB681B6923
:103DA000002B04D10023FB61BB68BB6103E0BB684F
:103DB000FB610023BB613BE07A69F8683B680093D4
:103DC00013000022202100F0E3FA031E05D0FB6857
:103DD000802220219950032337E0FB69002B0ED16C
:103DE000FB681B689B8C9BB21222BA181288134086
:103DF0009AB2BB691A80BB690233BB610FE0FB68F2
:103E00001B689B8C9BB2DBB21222BA181288D2B20A
:103E10001340DAB2FB691A70FB690133FB61FB687E
:103E20005A229B5A9BB2013B99B2FB685A22995283
:103E3000FB685A229B5A9BB2002BBDD1FB688022A3
:103E400020219950002300E002231800BD4608B04D
:103E500080BDC046FF01000080B588B000AF78602B
:103E60001E23FB1800221A707B689A687B681B6906
:103E70001A437B685B691A437B68DB6913437B6188
:103E80007B681B681B688D4A134019007B681B68A0
:103E90007A690A431A607B681B685B68884A13402A
:103EA00019007B68DA687B681B680A435A607B6884
:103EB0009B697B617B681B6A7A6913437B617B68C2
:103EC0001B689B687F4A134019007B681B687A69EE
:103ED0000A439A607B681B687B4A934227D17B4BDD
:103EE0001B6B03221340032B0DD01BD8022B14D0C5
:103EF00018D8002B02D0012B0AD013E01F23FB1887
:103F000000221A7021E01F23FB1802221A701CE005
:103F10001F23FB1804221A7017E01F23FB18082226
:103F20001A7012E01F23FB1810221A700DE07B6834
:103F30001B68674A934204D11F23FB1800221A70A2
:103F400003E01F23FB1810221A707B68DA698023B4
:103F50001B029A425CD11F23FB181B78082B15D03B
:103F600018DC042B0DD015DC002B02D0022B05D061
:103F700010E0FFF791FC0300BB6112E0554BBB6101
:103F80000FE0FFF70DFC0300BB610AE080231B027A
:103F9000BB6106E00023BB611E23FB1801221A70DF
:103FA000C046BB69002B00D17AE0BB695A007B6830
:103FB0005B685B08D2187B685B6819001000FCF72F
:103FC000A3F803003B613B690F2B1CD93A6980239E
:103FD0005B029A4217D23B699AB20E203B180F211E
:103FE0008A431A803B695B089BB20722134099B24F
:103FF0003B183A1812880A431A807B681B683A18E3
:104000001288DA604CE01E23FB1801221A7047E088
:104010001F23FB181B78082B15D018DC042B0DD0A0
:1040200015DC002B02D0022B05D010E0FFF734FC8A
:104030000300BB6112E0274BBB610FE0FFF7B0FB51
:104040000300BB610AE080231B02BB6106E0002382
:10405000BB611E23FB1801221A70C046BB69002BEE
:104060001ED07B685B685A08BB69D2187B685B68A6
:1040700019001000FCF748F803003B613B690F2B67
:104080000AD93A6980235B029A4205D23B699AB207
:104090007B681B68DA6003E01E23FB1801221A709C
:1040A0007B6800229A667B680022DA661E23FB1872
:1040B0001B781800BD4608B080BDC046F369FFEF0D
:1040C000FFCFFFFFFFF4FFFF003801400010024068
:1040D0000044004000127A0080B582B000AF7860E2
:1040E0007B685B6A012213400BD07B681B685B68AE
:1040F0004A4A134019007B689A6A7B681B680A4326
:104100005A607B685B6A022213400BD07B681B6895
:104110005B68434A134019007B68DA6A7B681B6856
:104120000A435A607B685B6A042213400BD07B68A9
:104130001B685B683B4A134019007B681A6B7B68FD
:104140001B680A435A607B685B6A082213400BD0E5
:104150007B681B685B68344A134019007B685A6BA4
:104160007B681B680A435A607B685B6A10221340B5
:104170000BD07B681B689B682C4A134019007B6836
:104180009A6B7B681B680A439A607B685B6A202293
:1041900013400BD07B681B689B68254A13401900AD
:1041A0007B68DA6B7B681B680A439A607B685B6A92
:1041B000402213401DD07B681B685B681D4A13407A
:1041C00019007B681A6C7B681B680A435A607B681D
:1041D0001A6C80235B039A420BD17B681B685B6877
:1041E000154A134019007B685A6C7B681B680A43A8
:1041F0005A607B685B6A802213400BD07B681B6827
:104200005B680E4A134019007B689A6C7B681B68D8
:104210000A435A60C046BD4602B080BDFFFFFDFFA5
:10422000FFFFFEFFFFFFFBFFFF7FFFFFFFEFFFFF33
:10423000FFDFFFFFFFFFEFFFFFFF9FFFFFFFF7FF26
:1042400080B592B002AF78607B68842200219950DB
:10425000FEF720FC0300FB637B681B681B680822D9
:104260001340082B2CD1FB6B802291037868464ABF
:104270000092002200F08CF8031E21D0EFF310838F
:104280007B627B6ABB630123BB62BB6A83F31088DA
:10429000C0467B681B681A687B681B6880218A435C
:1042A0001A60BB6BFB62FB6A83F31088C0467B68B5
:1042B0002022DA677B6878220021995403235FE08B
:1042C0007B681B681B6804221340042B46D1FB6BE0
:1042D0008022D10378682C4A0092002200F058F81E
:1042E000031E3BD0EFF31083FB60FB687B6301236D
:1042F0003B613B6983F31088C0467B681B681A6882
:104300007B681B6821490A401A607B6B7B617B6973
:1043100083F31088C046EFF31083BB61BB693B6336
:104320000123FB61FB6983F31088C0467B681B682F
:104330009A687B681B6801218A439A603B6B3B62E9
:104340003B6A83F31088C0467B6880222021995005
:104350007B68782200219954032311E07B68202296
:10436000DA677B688022202199507B6800221A66D8
:104370007B6800225A667B687822002199540023CA
:104380001800BD4610B080BDFFFFFF01DFFEFFFF3C
:1043900080B584B000AFF860B9603B60FB1D1A7057
:1043A0004BE0BB69013348D0FEF774FB02003B6869
:1043B000D31ABA699A4202D3BB69002B01D10323F5
:1043C0004BE0FB681B681B680422134035D0FB6878
:1043D0001B68DB6908221340082B11D1FB681B689E
:1043E00008221A62FB68180000F03CF8FB6884227F
:1043F00008219950FB6878220021995401232CE070
:10440000FB681B68DA6980231B011A4080231B01AB
:104410009A4212D1FB681B68802212011A62FB6863
:10442000180000F01FF8FB68842220219950FB68D7
:1044300078220021995403230FE0FB681B68DB6995
:10444000BA681340BA68D31A5A425341DBB21A0011
:10445000FB1D1B789A42A4D000231800BD4604B06F
:1044600080BD000080B58EB000AF7860EFF31083A0
:104470007B617B697B630123BB61BB6983F310882C
:10448000C0467B681B681A687B681B6826490A401F
:104490001A607B6BFB61FB6983F31088C046EFF306
:1044A00010833B623B6A3B6301237B627B6A83F33D
:1044B0001088C0467B681B689A687B681B6801216E
:1044C0008A439A603B6BBB62BB6A83F31088C04629
:1044D0007B681B6E012B18D1EFF31083BB60BB68A8
:1044E000FB620123FB60FB6883F31088C0467B6896
:1044F0001B681A687B681B6810218A431A60FB6A74
:104500003B613B6983F31088C0467B688022202191
:1045100099507B6800221A667B6800229A66C04622
:10452000BD460EB080BDC046DFFEFFFF70B5002661
:104530000C4D0D4C641BA410A64209D1002600F0BE
:1045400021F80A4D0A4C641BA410A64205D170BD87
:10455000B300EB5898470136EEE7B300EB589847A5
:104560000136F2E718460008184600081846000809
:104570001C46000803008218934200D1704719704E
:104580000133F9E7F8B5C046F8BC08BC9E46704751
:0C459000F8B5C046F8BC08BC9E46704759
:10459C00000000000000FF00000000000000000010
:1045AC002F423F4528482B4D6251655468576D5A30
:1045BC0000000000000000000000000000000000EF
:1045CC0000000000000000000000000000000000DF
:1045DC0000000000000000000000000001020304C5
:1045EC000607080900000000010203040203040589
:1045FC00060708090A0B0C0D0E0F1010010203041C
:0C460C0005060708090A0B0C0D0E0F1024
:04461800E9000008AD
:04461C00C1000008D1
:1046200001020408102040801B360000637C777B69
:10463000F26B6FC53001672BFED7AB76CA82C97D9E
:10464000FA5947F0ADD4A2AF9CA472C0B7FD93262F
:10465000363FF7CC34A5E5F171D8311504C723C333
:104660001896059A071280E2EB27B27509832C1A77
:104670001B6E5AA0523BD6B329E32F8453D100EDD1
:1046800020FCB15B6ACBBE394A4C58CFD0EFAAFBB5
:10469000434D338545F9027F503C9FA851A3408F7D
:1046A000929D38F5BCB6DA2110FFF3D2CD0C13EC95
:1046B0005F974417C4A77E3D645D197360814FDC2A
:1046C000222A908846EEB814DE5E0BDBE0323A0A0E
:1046D0004906245CC2D3AC629195E479E7C8376D92
:1046E0008DD54EA96C56F4EA657AAE08BA78252EB7
:1046F0001CA6B4C6E8DD741F4BBD8B8A703EB56640
:104700004803F60E613557B986C11D9EE1F8981130
:1047100069D98E949B1E87E9CE5528DF8CA1890D1F
:10472000BFE6426841992D0FB054BB1652096AD5B5
:104730003036A538BF40A39E81F3D7FB7CE3398296
:104740009B2FFF87348E4344C4DEE9CB547B9432E5
:10475000A6C2233DEE4C950B42FAC34E082EA1662D
:1047600028D924B2765BA2496D8BD12572F8F66404
:1047700086689816D4A45CCC5D65B6926C7048507F
:10478000FDEDB9DA5E154657A78D9D8490D8AB0034
:104790008CBCD30AF7E45805B8B34506D02C1E8F5D
:1047A000CA3F0F02C1AFBD0301138A6B3A91114199
:1047B0004F67DCEA97F2CFCEF0B4E67396AC742282
:1047C000E7AD3585E2F937E81C75DF6E47F11A7100
:1047D0001D29C5896FB7620EAA18BE1BFC563E4B39
:1047E000C6D279209ADBC0FE78CD5AF41FDDA833FB
:1047F0008807C731B11210592780EC5F60517FA93B
:1048000019B54A0D2DE57A9F93C99CEFA0E03B4D69
:10481000AE2AF5B0C8EBBB3C83539961172B047EDD
:10482000BA77D626E169146355210C7D3A322A22E3
:104830001A120A023C342C241C140C043E362E2678
:104840001E160E064038302820181008393129214C
:10485000191109013B332B231B130B033D352D2568
:104860001D150D053F372F271F170F07280830107C
:104870003818402027072F0F37173F1F26062E0E08
:1048800036163E1E25052D0D35153D1D24042C0C18
:1048900034143C1C23032B0B33133B1B22022A0A28
:1048A00032123A1A21012909311139192001020362
:1048B000040504050607080908090A0B0C0D0C0D70
:1048C0000E0F1011101112131415141516171819B4
:1048D00018191A1B1C1D1C1D1E1F20011007141562
:1048E0001D0C1C11010F171A05121F0A0208180EC1
:1048F000201B0309130D1E06160B04190E040D01CF
:10490000020F0B08030A060C05090007000F070435
:104910000E020D010A060C0B0905030804010E081E
:104920000D06020B0F0C0907030A05000F0C080205
:1049300004090107050B030E0A00060D0F01080EFE
:10494000060B03040907020D0C00050A030D0407FA
:104950000F02080E0C00010A06090B05000E070BDA
:104960000A040D0105080C060903020F0D080A01CF
:10497000030F04020B06070C00050E090A00090EBE
:1049800006030F05010D0C070B0402080D070009B3
:104990000304060A0208050E0C0B0F010D0604099C
:1049A000080F03000B01020C050A0E07010A0D0097
:1049B00006090807040F0E030B05020C070D0E0372
:1049C0000006090A010208050B0C040F0D080B056F
:1049D000060F00030407020C010A0E090A0609006B
:1049E0000C0B070D0F01030E05020804030F000650
:1049F0000A010D080904050B0C07020E020C040144
:104A0000070A0B060805030F0D000E090E0B020C1A
:104A100004070D0105000F0A030908060402010B33
:104A20000A0D07080F090C050603000E0B080C07FA
:104A3000010E020D060F00090A0405030C010A0FFE
:104A400009020608000D03040E07050B0A0F0402F5
:104A5000070C090506010D0E000B0308090E0F05D2
:104A600002080C030700040A010D0B060403020CE4
:104A700009050F0A0B0E01070600080D040B020EB4
:104A80000F00080D030C0907050A06010D000B07AE
:104A90000409010A0E03050C020F080601040B0DA0
:104AA0000C03070E0A0F060800050902060B0D0885
:104AB00001040A070905000F0E02030C0D02080489
:104AC000060F0B010A09030E05000C07010F0D0864
:104AD0000A0307040C05060B000E0902070B04016C
:104AE000090C0E0200060A0D0F03050802010E074D
:104AF000040A080D0F0C09000305060B39312921A2
:104B0000191109013A322A221A120A023B332B23C5
:104B10001B130B033C342C243F372F271F170F0781
:104B20003E362E261E160E063D352D251D150D056D
:104B30001C140C040E110B180105031C0F06150A9A
:104B400017130C041A0810071B140D0229341F2513
:104B50002F371E28332D21302C31273822352E2A8D
:104B600032241D200101020202020202010202029D
:104B70000202020100127A0004000000010000009D
:040000050800295D69
:00000001FF
